{
  "transactions": [
    {
      "hash": "0x2472b51c3666fe7393497d25ba2665b4cf0d3e641da6f7e7be1cb0f5d5376738",
      "transactionType": "CALL",
      "contractName": null,
      "contractAddress": "0x0b916a3f244e86efe387c3fbe80709e9eb8f5580",
      "function": "joinProject()",
      "arguments": [],
      "transaction": {
        "from": "0xfcf07cf03599cbbafb90ee179fc6f5b198b67474",
        "to": "0x0b916a3f244e86efe387c3fbe80709e9eb8f5580",
        "gas": "0x36238",
        "value": "0x0",
        "input": "0x132972c4",
        "nonce": "0x10",
        "chainId": "0xaa37dc"
      },
      "additionalContracts": [],
      "isFixedGasLimit": false
    },
    {
      "hash": "0x54abe1fc467db44a9be9d998086640328463694215751355863ccb6aa17ebd60",
      "transactionType": "CALL",
      "contractName": null,
      "contractAddress": "0x0b916a3f244e86efe387c3fbe80709e9eb8f5580",
      "function": "createPoll(string,string,string)",
      "arguments": [
        "ll",
        "ll",
        "ll"
      ],
      "transaction": {
        "from": "0xfcf07cf03599cbbafb90ee179fc6f5b198b67474",
        "to": "0x0b916a3f244e86efe387c3fbe80709e9eb8f5580",
        "gas": "0x3259d",
        "value": "0x0",
        "input": "0xe201201c000000000000000000000000000000000000000000000000000000000000006000000000000000000000000000000000000000000000000000000000000000a000000000000000000000000000000000000000000000000000000000000000e000000000000000000000000000000000000000000000000000000000000000026c6c00000000000000000000000000000000000000000000000000000000000000000000000000000000000000000000000000000000000000000000000000026c6c00000000000000000000000000000000000000000000000000000000000000000000000000000000000000000000000000000000000000000000000000026c6c000000000000000000000000000000000000000000000000000000000000",
        "nonce": "0x11",
        "chainId": "0xaa37dc"
      },
      "additionalContracts": [],
      "isFixedGasLimit": false
    }
  ],
  "receipts": [
    {
      "status": "0x1",
      "cumulativeGasUsed": "0x35005",
      "logs": [
        {
          "address": "0x0b916a3f244e86efe387c3fbe80709e9eb8f5580",
          "topics": [
            "0x96d60ca9fe9fc21c942d5995e6de2db040128659708616614baa0e4feaf5d7d9",
            "0x000000000000000000000000fcf07cf03599cbbafb90ee179fc6f5b198b67474"
          ],
          "data": "0x0000000000000000000000000000000000000000000000000000000000000001000000000000000000000000000000000000000000000000000000000000000a",
          "blockHash": "0xd63d89fe7a25fb14dcaf18c3046c5858b1daaaf73b92d874d8bf51415fe975e3",
          "blockNumber": "0x17202d7",
          "transactionHash": "0x2472b51c3666fe7393497d25ba2665b4cf0d3e641da6f7e7be1cb0f5d5376738",
          "transactionIndex": "0x2",
          "logIndex": "0x0",
          "removed": false
        }
      ],
      "logsBloom": "0x00000000000000000000000000000080000000000000000000080000000000000000000000000000000000000000000000000000000000000000000000800000000000000080000000000000000000000000000000800000000000000000000000000000400000000000000000000000000000000000000000000000000000000000000000000000000000000000000000000000000000000000000000000000000000000000200000000000000000000004000000000000000000000000000000000000800000000000000000000000000000000000000000000000000000000000000000000000000000000000000000000000000000000000000000000000",
      "type": "0x2",
      "transactionHash": "0x2472b51c3666fe7393497d25ba2665b4cf0d3e641da6f7e7be1cb0f5d5376738",
      "transactionIndex": "0x2",
      "blockHash": "0xd63d89fe7a25fb14dcaf18c3046c5858b1daaaf73b92d874d8bf51415fe975e3",
      "blockNumber": "0x17202d7",
      "gasUsed": "0x2504a",
      "effectiveGasPrice": "0xf433b",
      "from": "0xfcf07cf03599cbbafb90ee179fc6f5b198b67474",
      "to": "0x0b916a3f244e86efe387c3fbe80709e9eb8f5580",
      "contractAddress": null,
      "l1BaseFeeScalar": "0x1db0",
      "l1BlobBaseFee": "0x1be0",
      "l1BlobBaseFeeScalar": "0xd2730",
      "l1Fee": "0x6ea3c2b03",
      "l1GasPrice": "0x91935584",
      "l1GasUsed": "0x640"
    },
    {
      "status": "0x1",
      "cumulativeGasUsed": "0x3cc92",
      "logs": [
        {
          "address": "0x0b916a3f244e86efe387c3fbe80709e9eb8f5580",
          "topics": [
            "0x0676a78d87504ca6f29e3cdcfad728f1570e9b2f9548165e6f90ce9204f55daf",
            "0x0000000000000000000000000000000000000000000000000000000000000000",
            "0x000000000000000000000000fcf07cf03599cbbafb90ee179fc6f5b198b67474"
          ],
          "data": "0x0000000000000000000000000000000000000000000000000000000000000040000000000000000000000000000000000000000000000000000000000000008000000000000000000000000000000000000000000000000000000000000000026c6c00000000000000000000000000000000000000000000000000000000000000000000000000000000000000000000000000000000000000000000000000026c6c000000000000000000000000000000000000000000000000000000000000",
          "blockHash": "0x45d18591e5d9e44097bab7fe9cb32611cffe84adcf52606751e51b1944c1ef17",
          "blockNumber": "0x17202d9",
          "transactionHash": "0x54abe1fc467db44a9be9d998086640328463694215751355863ccb6aa17ebd60",
          "transactionIndex": "0x3",
          "logIndex": "0x0",
          "removed": false
        }
      ],
      "logsBloom": "0x00000000000000000000000000000080000000000000000040080000000000000000000000000000000000000000000000000000000000000000000000000000000000000000000000000000000000000000000000800000000000000000000000000000420000000000000000000801000000000000000000000000000000000000000000000200000000000000000000000000000000000000000000000000000000000000000000000000000000000004000000000000000000000000000000000000800000000000000000000000000000000000000000000000000020000000000000000000000000000000000000000000000000000000000000000000",
      "type": "0x2",
      "transactionHash": "0x54abe1fc467db44a9be9d998086640328463694215751355863ccb6aa17ebd60",
      "transactionIndex": "0x3",
      "blockHash": "0x45d18591e5d9e44097bab7fe9cb32611cffe84adcf52606751e51b1944c1ef17",
      "blockNumber": "0x17202d9",
      "gasUsed": "0x24740",
      "effectiveGasPrice": "0xf433b",
      "from": "0xfcf07cf03599cbbafb90ee179fc6f5b198b67474",
      "to": "0x0b916a3f244e86efe387c3fbe80709e9eb8f5580",
      "contractAddress": null,
      "l1BaseFeeScalar": "0x1db0",
      "l1BlobBaseFee": "0x1be0",
      "l1BlobBaseFeeScalar": "0xd2730",
      "l1Fee": "0x6ea3c2b03",
      "l1GasPrice": "0x91935584",
      "l1GasUsed": "0x640"
    }
  ],
  "libraries": [],
  "pending": [],
  "returns": {},
  "timestamp": 1740300640,
  "chain": 11155420,
  "commit": "da49678"
}