{
  "transactions": [
    {
      "hash": "0x6e1f3ea23be985c14212ce2baf3762440c561b967af6bf1b69a10b2c82eb4103",
      "transactionType": "CALL",
      "contractName": null,
      "contractAddress": "0x0b916a3f244e86efe387c3fbe80709e9eb8f5580",
      "function": "castVote(uint256,uint256)",
      "arguments": [
        "0",
        "1"
      ],
      "transaction": {
        "from": "0xfcf07cf03599cbbafb90ee179fc6f5b198b67474",
        "to": "0x0b916a3f244e86efe387c3fbe80709e9eb8f5580",
        "gas": "0x3b21c",
        "value": "0x0",
        "input": "0x2c0a3f8900000000000000000000000000000000000000000000000000000000000000000000000000000000000000000000000000000000000000000000000000000001",
        "nonce": "0x13",
        "chainId": "0xaa37dc"
      },
      "additionalContracts": [],
      "isFixedGasLimit": false
    }
  ],
  "receipts": [
    {
      "status": "0x1",
      "cumulativeGasUsed": "0x48733",
      "logs": [
        {
          "address": "0x0b916a3f244e86efe387c3fbe80709e9eb8f5580",
          "topics": [
            "0xe89c99a0264d21c2ad18316d6e7b3aa31414c12f31b085afdeeacaa7e69f80b6",
            "0x000000000000000000000000fcf07cf03599cbbafb90ee179fc6f5b198b67474",
            "0x0000000000000000000000000000000000000000000000000000000000000000"
          ],
          "data": "0x000000000000000000000000000000000000000000000000000000000000000100000000000000000000000000000000000000000000000000000000000000010000000000000000000000000000000000000000000000000000000000000001",
          "blockHash": "0x7d42e149871088be1e2c78333d673c4149279a84ef83a5da9cc1a32f3654f28b",
          "blockNumber": "0x1720336",
          "transactionHash": "0x6e1f3ea23be985c14212ce2baf3762440c561b967af6bf1b69a10b2c82eb4103",
          "transactionIndex": "0x3",
          "logIndex": "0x1",
          "removed": false
        }
      ],
      "logsBloom": "0x00000000000000000000000000000080000000000000000000080000000000000000000000000000000000000000000000000000000000000000000000000000000000000000000000000000000000000000000000800000000000000000000000000000420000000000000000000800000000000000000000000000000000000000000000000000000000000000000000000000000000000000000000000000000000000000000000000000000000000004000000000000000200000000000008000000800000100000000000000000000000000000000000000000000020000000000000000000000000000000000000000000000000000000000000000000",
      "type": "0x2",
      "transactionHash": "0x6e1f3ea23be985c14212ce2baf3762440c561b967af6bf1b69a10b2c82eb4103",
      "transactionIndex": "0x3",
      "blockHash": "0x7d42e149871088be1e2c78333d673c4149279a84ef83a5da9cc1a32f3654f28b",
      "blockNumber": "0x1720336",
      "gasUsed": "0x2acf8",
      "effectiveGasPrice": "0xf6a4d",
      "from": "0xfcf07cf03599cbbafb90ee179fc6f5b198b67474",
      "to": "0x0b916a3f244e86efe387c3fbe80709e9eb8f5580",
      "contractAddress": null,
      "l1BaseFeeScalar": "0x1db0",
      "l1BlobBaseFee": "0x1be0",
      "l1BlobBaseFeeScalar": "0xd2730",
      "l1Fee": "0x7c05794d7",
      "l1GasPrice": "0xa32eda02",
      "l1GasUsed": "0x640"
    }
  ],
  "libraries": [],
  "pending": [],
  "returns": {},
  "timestamp": 1740300825,
  "chain": 11155420,
  "commit": "da49678"
}