{
  "transactions": [
    {
      "hash": "0xbd4ce1cda272474ba76aeb531375f4308a758c50612da1b01acb1ceb627707c1",
      "transactionType": "CALL",
      "contractName": null,
      "contractAddress": "0x0b916a3f244e86efe387c3fbe80709e9eb8f5580",
      "function": "createPoll(string,string,string)",
      "arguments": [
        "ll",
        "ll",
        "ll"
      ],
      "transaction": {
        "from": "0xfcf07cf03599cbbafb90ee179fc6f5b198b67474",
        "to": "0x0b916a3f244e86efe387c3fbe80709e9eb8f5580",
        "gas": "0x2c959",
        "value": "0x0",
        "input": "0xe201201c000000000000000000000000000000000000000000000000000000000000006000000000000000000000000000000000000000000000000000000000000000a000000000000000000000000000000000000000000000000000000000000000e000000000000000000000000000000000000000000000000000000000000000026c6c00000000000000000000000000000000000000000000000000000000000000000000000000000000000000000000000000000000000000000000000000026c6c00000000000000000000000000000000000000000000000000000000000000000000000000000000000000000000000000000000000000000000000000026c6c000000000000000000000000000000000000000000000000000000000000",
        "nonce": "0x12",
        "chainId": "0xaa37dc"
      },
      "additionalContracts": [],
      "isFixedGasLimit": false
    }
  ],
  "receipts": [
    {
      "status": "0x1",
      "cumulativeGasUsed": "0x1effa0",
      "logs": [
        {
          "address": "0x0b916a3f244e86efe387c3fbe80709e9eb8f5580",
          "topics": [
            "0x0676a78d87504ca6f29e3cdcfad728f1570e9b2f9548165e6f90ce9204f55daf",
            "0x0000000000000000000000000000000000000000000000000000000000000001",
            "0x000000000000000000000000fcf07cf03599cbbafb90ee179fc6f5b198b67474"
          ],
          "data": "0x0000000000000000000000000000000000000000000000000000000000000040000000000000000000000000000000000000000000000000000000000000008000000000000000000000000000000000000000000000000000000000000000026c6c00000000000000000000000000000000000000000000000000000000000000000000000000000000000000000000000000000000000000000000000000026c6c000000000000000000000000000000000000000000000000000000000000",
          "blockHash": "0x6335da5c2adf17f7f22f12555ec78f9f8e299f9181b20eb8861d5fd5f48f63fb",
          "blockNumber": "0x17202ed",
          "transactionHash": "0xbd4ce1cda272474ba76aeb531375f4308a758c50612da1b01acb1ceb627707c1",
          "transactionIndex": "0x6",
          "logIndex": "0xf",
          "removed": false
        }
      ],
      "logsBloom": "0x00000000000000000000000000000080000000000000000040080000000000000000000000000000000000000000000000000000000000000000000000040000000000000000000000000000000000000000000000840000000000000000000000000000400000000000000000000001000000000000000000000000000000000000000000000200000000000000000000000000000000000000000000000000000000000000000000000000000000000004000000000000000000000000000000000000800000000000000000000000000000000000000000000000000040000000000000000000000000000000000000000000000000000000000000000000",
      "type": "0x2",
      "transactionHash": "0xbd4ce1cda272474ba76aeb531375f4308a758c50612da1b01acb1ceb627707c1",
      "transactionIndex": "0x6",
      "blockHash": "0x6335da5c2adf17f7f22f12555ec78f9f8e299f9181b20eb8861d5fd5f48f63fb",
      "blockNumber": "0x17202ed",
      "gasUsed": "0x20474",
      "effectiveGasPrice": "0xf433b",
      "from": "0xfcf07cf03599cbbafb90ee179fc6f5b198b67474",
      "to": "0x0b916a3f244e86efe387c3fbe80709e9eb8f5580",
      "contractAddress": null,
      "l1BaseFeeScalar": "0x1db0",
      "l1BlobBaseFee": "0x1cfe",
      "l1BlobBaseFeeScalar": "0xd2730",
      "l1Fee": "0x70a4e6681",
      "l1GasPrice": "0x94367c98",
      "l1GasUsed": "0x640"
    }
  ],
  "libraries": [],
  "pending": [],
  "returns": {},
  "timestamp": 1740300680,
  "chain": 11155420,
  "commit": "da49678"
}